{
  "_format": "hh-sol-artifact-1",
  "contractName": "AxoGenesis",
  "sourceName": "contracts/AxoGenesis.sol",
  "abi": [
    {
      "inputs": [],
      "stateMutability": "payable",
      "type": "constructor"
    },
    {
      "anonymous": false,
      "inputs": [
        {
          "indexed": true,
          "internalType": "address",
          "name": "owner",
          "type": "address"
        },
        {
          "indexed": true,
          "internalType": "address",
          "name": "approved",
          "type": "address"
        },
        {
          "indexed": true,
          "internalType": "uint256",
          "name": "tokenId",
          "type": "uint256"
        }
      ],
      "name": "Approval",
      "type": "event"
    },
    {
      "anonymous": false,
      "inputs": [
        {
          "indexed": true,
          "internalType": "address",
          "name": "owner",
          "type": "address"
        },
        {
          "indexed": true,
          "internalType": "address",
          "name": "operator",
          "type": "address"
        },
        {
          "indexed": false,
          "internalType": "bool",
          "name": "approved",
          "type": "bool"
        }
      ],
      "name": "ApprovalForAll",
      "type": "event"
    },
    {
      "anonymous": false,
      "inputs": [
        {
          "indexed": true,
          "internalType": "address",
          "name": "previousOwner",
          "type": "address"
        },
        {
          "indexed": true,
          "internalType": "address",
          "name": "newOwner",
          "type": "address"
        }
      ],
      "name": "OwnershipTransferred",
      "type": "event"
    },
    {
      "anonymous": false,
      "inputs": [
        {
          "indexed": true,
          "internalType": "address",
          "name": "from",
          "type": "address"
        },
        {
          "indexed": true,
          "internalType": "address",
          "name": "to",
          "type": "address"
        },
        {
          "indexed": true,
          "internalType": "uint256",
          "name": "tokenId",
          "type": "uint256"
        }
      ],
      "name": "Transfer",
      "type": "event"
    },
    {
      "inputs": [
        {
          "internalType": "address",
          "name": "to",
          "type": "address"
        },
        {
          "internalType": "uint256",
          "name": "tokenId",
          "type": "uint256"
        }
      ],
      "name": "approve",
      "outputs": [],
      "stateMutability": "nonpayable",
      "type": "function"
    },
    {
      "inputs": [
        {
          "internalType": "address",
          "name": "owner",
          "type": "address"
        }
      ],
      "name": "balanceOf",
      "outputs": [
        {
          "internalType": "uint256",
          "name": "",
          "type": "uint256"
        }
      ],
      "stateMutability": "view",
      "type": "function"
    },
    {
      "inputs": [
        {
          "internalType": "uint256",
          "name": "tokenId",
          "type": "uint256"
        }
      ],
      "name": "getApproved",
      "outputs": [
        {
          "internalType": "address",
          "name": "",
          "type": "address"
        }
      ],
      "stateMutability": "view",
      "type": "function"
    },
    {
      "inputs": [
        {
          "internalType": "address",
          "name": "owner",
          "type": "address"
        },
        {
          "internalType": "address",
          "name": "operator",
          "type": "address"
        }
      ],
      "name": "isApprovedForAll",
      "outputs": [
        {
          "internalType": "bool",
          "name": "",
          "type": "bool"
        }
      ],
      "stateMutability": "view",
      "type": "function"
    },
    {
      "inputs": [],
      "name": "isPublicMintEnabled",
      "outputs": [
        {
          "internalType": "bool",
          "name": "",
          "type": "bool"
        }
      ],
      "stateMutability": "view",
      "type": "function"
    },
    {
      "inputs": [],
      "name": "maxPerWallet",
      "outputs": [
        {
          "internalType": "uint256",
          "name": "",
          "type": "uint256"
        }
      ],
      "stateMutability": "view",
      "type": "function"
    },
    {
      "inputs": [],
      "name": "maxSupply",
      "outputs": [
        {
          "internalType": "uint256",
          "name": "",
          "type": "uint256"
        }
      ],
      "stateMutability": "view",
      "type": "function"
    },
    {
      "inputs": [
        {
          "internalType": "uint256",
          "name": "quantity_",
          "type": "uint256"
        }
      ],
      "name": "mint",
      "outputs": [],
      "stateMutability": "payable",
      "type": "function"
    },
    {
      "inputs": [],
      "name": "mintPrice",
      "outputs": [
        {
          "internalType": "uint256",
          "name": "",
          "type": "uint256"
        }
      ],
      "stateMutability": "view",
      "type": "function"
    },
    {
      "inputs": [],
      "name": "name",
      "outputs": [
        {
          "internalType": "string",
          "name": "",
          "type": "string"
        }
      ],
      "stateMutability": "view",
      "type": "function"
    },
    {
      "inputs": [],
      "name": "owner",
      "outputs": [
        {
          "internalType": "address",
          "name": "",
          "type": "address"
        }
      ],
      "stateMutability": "view",
      "type": "function"
    },
    {
      "inputs": [
        {
          "internalType": "uint256",
          "name": "tokenId",
          "type": "uint256"
        }
      ],
      "name": "ownerOf",
      "outputs": [
        {
          "internalType": "address",
          "name": "",
          "type": "address"
        }
      ],
      "stateMutability": "view",
      "type": "function"
    },
    {
      "inputs": [],
      "name": "renounceOwnership",
      "outputs": [],
      "stateMutability": "nonpayable",
      "type": "function"
    },
    {
      "inputs": [
        {
          "internalType": "address",
          "name": "from",
          "type": "address"
        },
        {
          "internalType": "address",
          "name": "to",
          "type": "address"
        },
        {
          "internalType": "uint256",
          "name": "tokenId",
          "type": "uint256"
        }
      ],
      "name": "safeTransferFrom",
      "outputs": [],
      "stateMutability": "nonpayable",
      "type": "function"
    },
    {
      "inputs": [
        {
          "internalType": "address",
          "name": "from",
          "type": "address"
        },
        {
          "internalType": "address",
          "name": "to",
          "type": "address"
        },
        {
          "internalType": "uint256",
          "name": "tokenId",
          "type": "uint256"
        },
        {
          "internalType": "bytes",
          "name": "_data",
          "type": "bytes"
        }
      ],
      "name": "safeTransferFrom",
      "outputs": [],
      "stateMutability": "nonpayable",
      "type": "function"
    },
    {
      "inputs": [
        {
          "internalType": "address",
          "name": "operator",
          "type": "address"
        },
        {
          "internalType": "bool",
          "name": "approved",
          "type": "bool"
        }
      ],
      "name": "setApprovalForAll",
      "outputs": [],
      "stateMutability": "nonpayable",
      "type": "function"
    },
    {
      "inputs": [
        {
          "internalType": "string",
          "name": "baseTokenUri_",
          "type": "string"
        }
      ],
      "name": "setBaseTokenUri",
      "outputs": [],
      "stateMutability": "nonpayable",
      "type": "function"
    },
    {
      "inputs": [
        {
          "internalType": "bool",
          "name": "isPublicMintEnabled_",
          "type": "bool"
        }
      ],
      "name": "setIsPublicMintEnabled",
      "outputs": [],
      "stateMutability": "nonpayable",
      "type": "function"
    },
    {
      "inputs": [
        {
          "internalType": "bytes4",
          "name": "interfaceId",
          "type": "bytes4"
        }
      ],
      "name": "supportsInterface",
      "outputs": [
        {
          "internalType": "bool",
          "name": "",
          "type": "bool"
        }
      ],
      "stateMutability": "view",
      "type": "function"
    },
    {
      "inputs": [],
      "name": "symbol",
      "outputs": [
        {
          "internalType": "string",
          "name": "",
          "type": "string"
        }
      ],
      "stateMutability": "view",
      "type": "function"
    },
    {
      "inputs": [
        {
          "internalType": "uint256",
          "name": "tokenId_",
          "type": "uint256"
        }
      ],
      "name": "tokenURI",
      "outputs": [
        {
          "internalType": "string",
          "name": "",
          "type": "string"
        }
      ],
      "stateMutability": "view",
      "type": "function"
    },
    {
      "inputs": [],
      "name": "totalSupply",
      "outputs": [
        {
          "internalType": "uint256",
          "name": "",
          "type": "uint256"
        }
      ],
      "stateMutability": "view",
      "type": "function"
    },
    {
      "inputs": [
        {
          "internalType": "address",
          "name": "from",
          "type": "address"
        },
        {
          "internalType": "address",
          "name": "to",
          "type": "address"
        },
        {
          "internalType": "uint256",
          "name": "tokenId",
          "type": "uint256"
        }
      ],
      "name": "transferFrom",
      "outputs": [],
      "stateMutability": "nonpayable",
      "type": "function"
    },
    {
      "inputs": [
        {
          "internalType": "address",
          "name": "newOwner",
          "type": "address"
        }
      ],
      "name": "transferOwnership",
      "outputs": [],
      "stateMutability": "nonpayable",
      "type": "function"
    },
    {
      "inputs": [
        {
          "internalType": "address",
          "name": "",
          "type": "address"
        }
      ],
      "name": "walletMints",
      "outputs": [
        {
          "internalType": "uint256",
          "name": "",
          "type": "uint256"
        }
      ],
      "stateMutability": "view",
      "type": "function"
    },
    {
      "inputs": [],
      "name": "withdraw",
      "outputs": [],
      "stateMutability": "nonpayable",
      "type": "function"
    },
    {
      "inputs": [],
      "name": "withdrawWallet",
      "outputs": [
        {
          "internalType": "address payable",
          "name": "",
          "type": "address"
        }
      ],
      "stateMutability": "view",
      "type": "function"
    }
  ],
  "bytecode": "0x60806040526040518060400160405280600a81526020017f41786f47656e65736973000000000000000000000000000000000000000000008152506040518060400160405280600381526020017f4158470000000000000000000000000000000000000000000000000000000000815250816000908051906020019062000088929190620001c9565b508060019080519060200190620000a1929190620001c9565b505050620000c4620000b8620000fb60201b60201c565b6200010360201b60201c565b60016007819055506802b5e3af16b18800006008819055506000600981905550610d05600a819055506003600b81905550620002de565b600033905090565b6000600660009054906101000a900473ffffffffffffffffffffffffffffffffffffffff16905081600660006101000a81548173ffffffffffffffffffffffffffffffffffffffff021916908373ffffffffffffffffffffffffffffffffffffffff1602179055508173ffffffffffffffffffffffffffffffffffffffff168173ffffffffffffffffffffffffffffffffffffffff167f8be0079c531659141344cd1fd0a4f28419497f9722a3daafe3b4186f6b6457e060405160405180910390a35050565b828054620001d79062000279565b90600052602060002090601f016020900481019282620001fb576000855562000247565b82601f106200021657805160ff191683800117855562000247565b8280016001018555821562000247579182015b828111156200024657825182559160200191906001019062000229565b5b5090506200025691906200025a565b5090565b5b80821115620002755760008160009055506001016200025b565b5090565b600060028204905060018216806200029257607f821691505b60208210811415620002a957620002a8620002af565b5b50919050565b7f4e487b7100000000000000000000000000000000000000000000000000000000600052602260045260246000fd5b61385580620002ee6000396000f3fe60806040526004361061019c5760003560e01c806370a08231116100ec578063a22cb4651161008a578063d5abeb0111610064578063d5abeb0114610593578063e985e9c5146105be578063f0293fd3146105fb578063f2fde38b146106385761019c565b8063a22cb46514610504578063b88d4fde1461052d578063c87b56dd146105565761019c565b80638da5cb5b116100c65780638da5cb5b1461046957806395652cfa1461049457806395d89b41146104bd578063a0712d68146104e85761019c565b806370a08231146103ea578063715018a61461042757806385d178f41461043e5761019c565b80632373ac221161015957806342842e0e1161013357806342842e0e1461032e578063453c2310146103575780636352211e146103825780636817c76c146103bf5761019c565b80632373ac22146102c557806323b872dd146102ee5780633ccfd60b146103175761019c565b80630116bc2d146101a157806301ffc9a7146101cc57806306fdde0314610209578063081812fc14610234578063095ea7b31461027157806318160ddd1461029a575b600080fd5b3480156101ad57600080fd5b506101b6610661565b6040516101c39190612b17565b60405180910390f35b3480156101d857600080fd5b506101f360048036038101906101ee91906124eb565b610674565b6040516102009190612b17565b60405180910390f35b34801561021557600080fd5b5061021e610756565b60405161022b9190612b32565b60405180910390f35b34801561024057600080fd5b5061025b60048036038101906102569190612582565b6107e8565b6040516102689190612a95565b60405180910390f35b34801561027d57600080fd5b5061029860048036038101906102939190612486565b61086d565b005b3480156102a657600080fd5b506102af610985565b6040516102bc9190612e14565b60405180910390f35b3480156102d157600080fd5b506102ec60048036038101906102e791906124c2565b61098b565b005b3480156102fa57600080fd5b5061031560048036038101906103109190612380565b610a24565b005b34801561032357600080fd5b5061032c610a84565b005b34801561033a57600080fd5b5061035560048036038101906103509190612380565b610c27565b005b34801561036357600080fd5b5061036c610c47565b6040516103799190612e14565b60405180910390f35b34801561038e57600080fd5b506103a960048036038101906103a49190612582565b610c4d565b6040516103b69190612a95565b60405180910390f35b3480156103cb57600080fd5b506103d4610cff565b6040516103e19190612e14565b60405180910390f35b3480156103f657600080fd5b50610411600480360381019061040c919061231b565b610d05565b60405161041e9190612e14565b60405180910390f35b34801561043357600080fd5b5061043c610dbd565b005b34801561044a57600080fd5b50610453610e45565b6040516104609190612ab0565b60405180910390f35b34801561047557600080fd5b5061047e610e6b565b60405161048b9190612a95565b60405180910390f35b3480156104a057600080fd5b506104bb60048036038101906104b6919061253d565b610e95565b005b3480156104c957600080fd5b506104d2610f27565b6040516104df9190612b32565b60405180910390f35b61050260048036038101906104fd9190612582565b610fb9565b005b34801561051057600080fd5b5061052b6004803603810190610526919061244a565b611190565b005b34801561053957600080fd5b50610554600480360381019061054f91906123cf565b6111a6565b005b34801561056257600080fd5b5061057d60048036038101906105789190612582565b611208565b60405161058a9190612b32565b60405180910390f35b34801561059f57600080fd5b506105a8611284565b6040516105b59190612e14565b60405180910390f35b3480156105ca57600080fd5b506105e560048036038101906105e09190612344565b61128a565b6040516105f29190612b17565b60405180910390f35b34801561060757600080fd5b50610622600480360381019061061d919061231b565b61131e565b60405161062f9190612e14565b60405180910390f35b34801561064457600080fd5b5061065f600480360381019061065a919061231b565b611336565b005b600c60009054906101000a900460ff1681565b60007f80ac58cd000000000000000000000000000000000000000000000000000000007bffffffffffffffffffffffffffffffffffffffffffffffffffffffff1916827bffffffffffffffffffffffffffffffffffffffffffffffffffffffff1916148061073f57507f5b5e139f000000000000000000000000000000000000000000000000000000007bffffffffffffffffffffffffffffffffffffffffffffffffffffffff1916827bffffffffffffffffffffffffffffffffffffffffffffffffffffffff1916145b8061074f575061074e8261142e565b5b9050919050565b606060008054610765906130c5565b80601f0160208091040260200160405190810160405280929190818152602001828054610791906130c5565b80156107de5780601f106107b3576101008083540402835291602001916107de565b820191906000526020600020905b8154815290600101906020018083116107c157829003601f168201915b5050505050905090565b60006107f382611498565b610832576040517f08c379a000000000000000000000000000000000000000000000000000000000815260040161082990612d14565b60405180910390fd5b6004600083815260200190815260200160002060009054906101000a900473ffffffffffffffffffffffffffffffffffffffff169050919050565b600061087882610c4d565b90508073ffffffffffffffffffffffffffffffffffffffff168373ffffffffffffffffffffffffffffffffffffffff1614156108e9576040517f08c379a00000000000000000000000000000000000000000000000000000000081526004016108e090612d74565b60405180910390fd5b8073ffffffffffffffffffffffffffffffffffffffff16610908611504565b73ffffffffffffffffffffffffffffffffffffffff161480610937575061093681610931611504565b61128a565b5b610976576040517f08c379a000000000000000000000000000000000000000000000000000000000815260040161096d90612c94565b60405180910390fd5b610980838361150c565b505050565b60095481565b610993611504565b73ffffffffffffffffffffffffffffffffffffffff166109b1610e6b565b73ffffffffffffffffffffffffffffffffffffffff1614610a07576040517f08c379a00000000000000000000000000000000000000000000000000000000081526004016109fe90612d54565b60405180910390fd5b80600c60006101000a81548160ff02191690831515021790555050565b610a35610a2f611504565b826115c5565b610a74576040517f08c379a0000000000000000000000000000000000000000000000000000000008152600401610a6b90612d94565b60405180910390fd5b610a7f8383836116a3565b505050565b610a8c611504565b73ffffffffffffffffffffffffffffffffffffffff16610aaa610e6b565b73ffffffffffffffffffffffffffffffffffffffff1614610b00576040517f08c379a0000000000000000000000000000000000000000000000000000000008152600401610af790612d54565b60405180910390fd5b60026007541415610b46576040517f08c379a0000000000000000000000000000000000000000000000000000000008152600401610b3d90612db4565b60405180910390fd5b60026007819055506000600e60009054906101000a900473ffffffffffffffffffffffffffffffffffffffff1673ffffffffffffffffffffffffffffffffffffffff1647604051610b9690612a80565b60006040518083038185875af1925050503d8060008114610bd3576040519150601f19603f3d011682016040523d82523d6000602084013e610bd8565b606091505b5050905080610c1c576040517f08c379a0000000000000000000000000000000000000000000000000000000008152600401610c1390612df4565b60405180910390fd5b506001600781905550565b610c42838383604051806020016040528060008152506111a6565b505050565b600b5481565b6000806002600084815260200190815260200160002060009054906101000a900473ffffffffffffffffffffffffffffffffffffffff169050600073ffffffffffffffffffffffffffffffffffffffff168173ffffffffffffffffffffffffffffffffffffffff161415610cf6576040517f08c379a0000000000000000000000000000000000000000000000000000000008152600401610ced90612cd4565b60405180910390fd5b80915050919050565b60085481565b60008073ffffffffffffffffffffffffffffffffffffffff168273ffffffffffffffffffffffffffffffffffffffff161415610d76576040517f08c379a0000000000000000000000000000000000000000000000000000000008152600401610d6d90612cb4565b60405180910390fd5b600360008373ffffffffffffffffffffffffffffffffffffffff1673ffffffffffffffffffffffffffffffffffffffff168152602001908152602001600020549050919050565b610dc5611504565b73ffffffffffffffffffffffffffffffffffffffff16610de3610e6b565b73ffffffffffffffffffffffffffffffffffffffff1614610e39576040517f08c379a0000000000000000000000000000000000000000000000000000000008152600401610e3090612d54565b60405180910390fd5b610e43600061190a565b565b600e60009054906101000a900473ffffffffffffffffffffffffffffffffffffffff1681565b6000600660009054906101000a900473ffffffffffffffffffffffffffffffffffffffff16905090565b610e9d611504565b73ffffffffffffffffffffffffffffffffffffffff16610ebb610e6b565b73ffffffffffffffffffffffffffffffffffffffff1614610f11576040517f08c379a0000000000000000000000000000000000000000000000000000000008152600401610f0890612d54565b60405180910390fd5b8181600d9190610f2292919061215d565b505050565b606060018054610f36906130c5565b80601f0160208091040260200160405190810160405280929190818152602001828054610f62906130c5565b8015610faf5780601f10610f8457610100808354040283529160200191610faf565b820191906000526020600020905b815481529060010190602001808311610f9257829003601f168201915b5050505050905090565b600c60009054906101000a900460ff16611008576040517f08c379a0000000000000000000000000000000000000000000000000000000008152600401610fff90612b94565b60405180910390fd5b600854816110169190612f6f565b3414611057576040517f08c379a000000000000000000000000000000000000000000000000000000000815260040161104e90612b54565b60405180910390fd5b600a54816009546110689190612ee8565b11156110a9576040517f08c379a00000000000000000000000000000000000000000000000000000000081526004016110a090612c74565b60405180910390fd5b600b5481600f60003373ffffffffffffffffffffffffffffffffffffffff1673ffffffffffffffffffffffffffffffffffffffff168152602001908152602001600020546110f79190612ee8565b1115611138576040517f08c379a000000000000000000000000000000000000000000000000000000000815260040161112f90612d34565b60405180910390fd5b60005b8181101561118c57600060016009546111549190612ee8565b90506009600081548092919061116990613128565b919050555061117833826119d0565b50808061118490613128565b91505061113b565b5050565b6111a261119b611504565b83836119ee565b5050565b6111b76111b1611504565b836115c5565b6111f6576040517f08c379a00000000000000000000000000000000000000000000000000000000081526004016111ed90612d94565b60405180910390fd5b61120284848484611b5b565b50505050565b606061121382611498565b611252576040517f08c379a000000000000000000000000000000000000000000000000000000000815260040161124990612dd4565b60405180910390fd5b600d61125d83611bb7565b60405160200161126e929190612a51565b6040516020818303038152906040529050919050565b600a5481565b6000600560008473ffffffffffffffffffffffffffffffffffffffff1673ffffffffffffffffffffffffffffffffffffffff16815260200190815260200160002060008373ffffffffffffffffffffffffffffffffffffffff1673ffffffffffffffffffffffffffffffffffffffff16815260200190815260200160002060009054906101000a900460ff16905092915050565b600f6020528060005260406000206000915090505481565b61133e611504565b73ffffffffffffffffffffffffffffffffffffffff1661135c610e6b565b73ffffffffffffffffffffffffffffffffffffffff16146113b2576040517f08c379a00000000000000000000000000000000000000000000000000000000081526004016113a990612d54565b60405180910390fd5b600073ffffffffffffffffffffffffffffffffffffffff168173ffffffffffffffffffffffffffffffffffffffff161415611422576040517f08c379a000000000000000000000000000000000000000000000000000000000815260040161141990612bb4565b60405180910390fd5b61142b8161190a565b50565b60007f01ffc9a7000000000000000000000000000000000000000000000000000000007bffffffffffffffffffffffffffffffffffffffffffffffffffffffff1916827bffffffffffffffffffffffffffffffffffffffffffffffffffffffff1916149050919050565b60008073ffffffffffffffffffffffffffffffffffffffff166002600084815260200190815260200160002060009054906101000a900473ffffffffffffffffffffffffffffffffffffffff1673ffffffffffffffffffffffffffffffffffffffff1614159050919050565b600033905090565b816004600083815260200190815260200160002060006101000a81548173ffffffffffffffffffffffffffffffffffffffff021916908373ffffffffffffffffffffffffffffffffffffffff160217905550808273ffffffffffffffffffffffffffffffffffffffff1661157f83610c4d565b73ffffffffffffffffffffffffffffffffffffffff167f8c5be1e5ebec7d5bd14f71427d1e84f3dd0314c0f7b2291e5b200ac8c7c3b92560405160405180910390a45050565b60006115d082611498565b61160f576040517f08c379a000000000000000000000000000000000000000000000000000000000815260040161160690612c54565b60405180910390fd5b600061161a83610c4d565b90508073ffffffffffffffffffffffffffffffffffffffff168473ffffffffffffffffffffffffffffffffffffffff16148061165c575061165b818561128a565b5b8061169a57508373ffffffffffffffffffffffffffffffffffffffff16611682846107e8565b73ffffffffffffffffffffffffffffffffffffffff16145b91505092915050565b8273ffffffffffffffffffffffffffffffffffffffff166116c382610c4d565b73ffffffffffffffffffffffffffffffffffffffff1614611719576040517f08c379a000000000000000000000000000000000000000000000000000000000815260040161171090612bd4565b60405180910390fd5b600073ffffffffffffffffffffffffffffffffffffffff168273ffffffffffffffffffffffffffffffffffffffff161415611789576040517f08c379a000000000000000000000000000000000000000000000000000000000815260040161178090612c14565b60405180910390fd5b611794838383611d64565b61179f60008261150c565b6001600360008573ffffffffffffffffffffffffffffffffffffffff1673ffffffffffffffffffffffffffffffffffffffff16815260200190815260200160002060008282546117ef9190612fc9565b925050819055506001600360008473ffffffffffffffffffffffffffffffffffffffff1673ffffffffffffffffffffffffffffffffffffffff16815260200190815260200160002060008282546118469190612ee8565b92505081905550816002600083815260200190815260200160002060006101000a81548173ffffffffffffffffffffffffffffffffffffffff021916908373ffffffffffffffffffffffffffffffffffffffff160217905550808273ffffffffffffffffffffffffffffffffffffffff168473ffffffffffffffffffffffffffffffffffffffff167fddf252ad1be2c89b69c2b068fc378daa952ba7f163c4a11628f55a4df523b3ef60405160405180910390a4611905838383611d69565b505050565b6000600660009054906101000a900473ffffffffffffffffffffffffffffffffffffffff16905081600660006101000a81548173ffffffffffffffffffffffffffffffffffffffff021916908373ffffffffffffffffffffffffffffffffffffffff1602179055508173ffffffffffffffffffffffffffffffffffffffff168173ffffffffffffffffffffffffffffffffffffffff167f8be0079c531659141344cd1fd0a4f28419497f9722a3daafe3b4186f6b6457e060405160405180910390a35050565b6119ea828260405180602001604052806000815250611d6e565b5050565b8173ffffffffffffffffffffffffffffffffffffffff168373ffffffffffffffffffffffffffffffffffffffff161415611a5d576040517f08c379a0000000000000000000000000000000000000000000000000000000008152600401611a5490612c34565b60405180910390fd5b80600560008573ffffffffffffffffffffffffffffffffffffffff1673ffffffffffffffffffffffffffffffffffffffff16815260200190815260200160002060008473ffffffffffffffffffffffffffffffffffffffff1673ffffffffffffffffffffffffffffffffffffffff16815260200190815260200160002060006101000a81548160ff0219169083151502179055508173ffffffffffffffffffffffffffffffffffffffff168373ffffffffffffffffffffffffffffffffffffffff167f17307eab39ab6107e8899845ad3d59bd9653f200f220920489ca2b5937696c3183604051611b4e9190612b17565b60405180910390a3505050565b611b668484846116a3565b611b7284848484611dc9565b611bb1576040517f08c379a0000000000000000000000000000000000000000000000000000000008152600401611ba890612b74565b60405180910390fd5b50505050565b60606000821415611bff576040518060400160405280600181526020017f30000000000000000000000000000000000000000000000000000000000000008152509050611d5f565b600082905060005b60008214611c31578080611c1a90613128565b915050600a82611c2a9190612f3e565b9150611c07565b60008167ffffffffffffffff811115611c73577f4e487b7100000000000000000000000000000000000000000000000000000000600052604160045260246000fd5b6040519080825280601f01601f191660200182016040528015611ca55781602001600182028036833780820191505090505b5090505b60008514611d5857600182611cbe9190612fc9565b9150600a85611ccd9190613171565b6030611cd99190612ee8565b60f81b818381518110611d15577f4e487b7100000000000000000000000000000000000000000000000000000000600052603260045260246000fd5b60200101907effffffffffffffffffffffffffffffffffffffffffffffffffffffffffffff1916908160001a905350600a85611d519190612f3e565b9450611ca9565b8093505050505b919050565b505050565b505050565b611d788383611f60565b611d856000848484611dc9565b611dc4576040517f08c379a0000000000000000000000000000000000000000000000000000000008152600401611dbb90612b74565b60405180910390fd5b505050565b6000611dea8473ffffffffffffffffffffffffffffffffffffffff1661213a565b15611f53578373ffffffffffffffffffffffffffffffffffffffff1663150b7a02611e13611504565b8786866040518563ffffffff1660e01b8152600401611e359493929190612acb565b602060405180830381600087803b158015611e4f57600080fd5b505af1925050508015611e8057506040513d601f19601f82011682018060405250810190611e7d9190612514565b60015b611f03573d8060008114611eb0576040519150601f19603f3d011682016040523d82523d6000602084013e611eb5565b606091505b50600081511415611efb576040517f08c379a0000000000000000000000000000000000000000000000000000000008152600401611ef290612b74565b60405180910390fd5b805181602001fd5b63150b7a0260e01b7bffffffffffffffffffffffffffffffffffffffffffffffffffffffff1916817bffffffffffffffffffffffffffffffffffffffffffffffffffffffff191614915050611f58565b600190505b949350505050565b600073ffffffffffffffffffffffffffffffffffffffff168273ffffffffffffffffffffffffffffffffffffffff161415611fd0576040517f08c379a0000000000000000000000000000000000000000000000000000000008152600401611fc790612cf4565b60405180910390fd5b611fd981611498565b15612019576040517f08c379a000000000000000000000000000000000000000000000000000000000815260040161201090612bf4565b60405180910390fd5b61202560008383611d64565b6001600360008473ffffffffffffffffffffffffffffffffffffffff1673ffffffffffffffffffffffffffffffffffffffff16815260200190815260200160002060008282546120759190612ee8565b92505081905550816002600083815260200190815260200160002060006101000a81548173ffffffffffffffffffffffffffffffffffffffff021916908373ffffffffffffffffffffffffffffffffffffffff160217905550808273ffffffffffffffffffffffffffffffffffffffff16600073ffffffffffffffffffffffffffffffffffffffff167fddf252ad1be2c89b69c2b068fc378daa952ba7f163c4a11628f55a4df523b3ef60405160405180910390a461213660008383611d69565b5050565b6000808273ffffffffffffffffffffffffffffffffffffffff163b119050919050565b828054612169906130c5565b90600052602060002090601f01602090048101928261218b57600085556121d2565b82601f106121a457803560ff19168380011785556121d2565b828001600101855582156121d2579182015b828111156121d15782358255916020019190600101906121b6565b5b5090506121df91906121e3565b5090565b5b808211156121fc5760008160009055506001016121e4565b5090565b600061221361220e84612e54565b612e2f565b90508281526020810184848401111561222b57600080fd5b612236848285613083565b509392505050565b60008135905061224d816137c3565b92915050565b600081359050612262816137da565b92915050565b600081359050612277816137f1565b92915050565b60008151905061228c816137f1565b92915050565b600082601f8301126122a357600080fd5b81356122b3848260208601612200565b91505092915050565b60008083601f8401126122ce57600080fd5b8235905067ffffffffffffffff8111156122e757600080fd5b6020830191508360018202830111156122ff57600080fd5b9250929050565b60008135905061231581613808565b92915050565b60006020828403121561232d57600080fd5b600061233b8482850161223e565b91505092915050565b6000806040838503121561235757600080fd5b60006123658582860161223e565b92505060206123768582860161223e565b9150509250929050565b60008060006060848603121561239557600080fd5b60006123a38682870161223e565b93505060206123b48682870161223e565b92505060406123c586828701612306565b9150509250925092565b600080600080608085870312156123e557600080fd5b60006123f38782880161223e565b94505060206124048782880161223e565b935050604061241587828801612306565b925050606085013567ffffffffffffffff81111561243257600080fd5b61243e87828801612292565b91505092959194509250565b6000806040838503121561245d57600080fd5b600061246b8582860161223e565b925050602061247c85828601612253565b9150509250929050565b6000806040838503121561249957600080fd5b60006124a78582860161223e565b92505060206124b885828601612306565b9150509250929050565b6000602082840312156124d457600080fd5b60006124e284828501612253565b91505092915050565b6000602082840312156124fd57600080fd5b600061250b84828501612268565b91505092915050565b60006020828403121561252657600080fd5b60006125348482850161227d565b91505092915050565b6000806020838503121561255057600080fd5b600083013567ffffffffffffffff81111561256a57600080fd5b612576858286016122bc565b92509250509250929050565b60006020828403121561259457600080fd5b60006125a284828501612306565b91505092915050565b6125b48161300f565b82525050565b6125c381612ffd565b82525050565b6125d281613021565b82525050565b60006125e382612e9a565b6125ed8185612eb0565b93506125fd818560208601613092565b6126068161325e565b840191505092915050565b600061261c82612ea5565b6126268185612ecc565b9350612636818560208601613092565b61263f8161325e565b840191505092915050565b600061265582612ea5565b61265f8185612edd565b935061266f818560208601613092565b80840191505092915050565b60008154612688816130c5565b6126928186612edd565b945060018216600081146126ad57600181146126be576126f1565b60ff198316865281860193506126f1565b6126c785612e85565b60005b838110156126e9578154818901526001820191506020810190506126ca565b838801955050505b50505092915050565b6000612707601083612ecc565b91506127128261326f565b602082019050919050565b600061272a603283612ecc565b915061273582613298565b604082019050919050565b600061274d601383612ecc565b9150612758826132e7565b602082019050919050565b6000612770602683612ecc565b915061277b82613310565b604082019050919050565b6000612793602583612ecc565b915061279e8261335f565b604082019050919050565b60006127b6601c83612ecc565b91506127c1826133ae565b602082019050919050565b60006127d9602483612ecc565b91506127e4826133d7565b604082019050919050565b60006127fc601983612ecc565b915061280782613426565b602082019050919050565b600061281f602c83612ecc565b915061282a8261344f565b604082019050919050565b6000612842600883612ecc565b915061284d8261349e565b602082019050919050565b6000612865603883612ecc565b9150612870826134c7565b604082019050919050565b6000612888602a83612ecc565b915061289382613516565b604082019050919050565b60006128ab602983612ecc565b91506128b682613565565b604082019050919050565b60006128ce602083612ecc565b91506128d9826135b4565b602082019050919050565b60006128f1602c83612ecc565b91506128fc826135dd565b604082019050919050565b6000612914600583612edd565b915061291f8261362c565b600582019050919050565b6000612937601183612ecc565b915061294282613655565b602082019050919050565b600061295a602083612ecc565b91506129658261367e565b602082019050919050565b600061297d602183612ecc565b9150612988826136a7565b604082019050919050565b60006129a0600083612ec1565b91506129ab826136f6565b600082019050919050565b60006129c3603183612ecc565b91506129ce826136f9565b604082019050919050565b60006129e6601f83612ecc565b91506129f182613748565b602082019050919050565b6000612a09601583612ecc565b9150612a1482613771565b602082019050919050565b6000612a2c600f83612ecc565b9150612a378261379a565b602082019050919050565b612a4b81613079565b82525050565b6000612a5d828561267b565b9150612a69828461264a565b9150612a7482612907565b91508190509392505050565b6000612a8b82612993565b9150819050919050565b6000602082019050612aaa60008301846125ba565b92915050565b6000602082019050612ac560008301846125ab565b92915050565b6000608082019050612ae060008301876125ba565b612aed60208301866125ba565b612afa6040830185612a42565b8181036060830152612b0c81846125d8565b905095945050505050565b6000602082019050612b2c60008301846125c9565b92915050565b60006020820190508181036000830152612b4c8184612611565b905092915050565b60006020820190508181036000830152612b6d816126fa565b9050919050565b60006020820190508181036000830152612b8d8161271d565b9050919050565b60006020820190508181036000830152612bad81612740565b9050919050565b60006020820190508181036000830152612bcd81612763565b9050919050565b60006020820190508181036000830152612bed81612786565b9050919050565b60006020820190508181036000830152612c0d816127a9565b9050919050565b60006020820190508181036000830152612c2d816127cc565b9050919050565b60006020820190508181036000830152612c4d816127ef565b9050919050565b60006020820190508181036000830152612c6d81612812565b9050919050565b60006020820190508181036000830152612c8d81612835565b9050919050565b60006020820190508181036000830152612cad81612858565b9050919050565b60006020820190508181036000830152612ccd8161287b565b9050919050565b60006020820190508181036000830152612ced8161289e565b9050919050565b60006020820190508181036000830152612d0d816128c1565b9050919050565b60006020820190508181036000830152612d2d816128e4565b9050919050565b60006020820190508181036000830152612d4d8161292a565b9050919050565b60006020820190508181036000830152612d6d8161294d565b9050919050565b60006020820190508181036000830152612d8d81612970565b9050919050565b60006020820190508181036000830152612dad816129b6565b9050919050565b60006020820190508181036000830152612dcd816129d9565b9050919050565b60006020820190508181036000830152612ded816129fc565b9050919050565b60006020820190508181036000830152612e0d81612a1f565b9050919050565b6000602082019050612e296000830184612a42565b92915050565b6000612e39612e4a565b9050612e4582826130f7565b919050565b6000604051905090565b600067ffffffffffffffff821115612e6f57612e6e61322f565b5b612e788261325e565b9050602081019050919050565b60008190508160005260206000209050919050565b600081519050919050565b600081519050919050565b600082825260208201905092915050565b600081905092915050565b600082825260208201905092915050565b600081905092915050565b6000612ef382613079565b9150612efe83613079565b9250827fffffffffffffffffffffffffffffffffffffffffffffffffffffffffffffffff03821115612f3357612f326131a2565b5b828201905092915050565b6000612f4982613079565b9150612f5483613079565b925082612f6457612f636131d1565b5b828204905092915050565b6000612f7a82613079565b9150612f8583613079565b9250817fffffffffffffffffffffffffffffffffffffffffffffffffffffffffffffffff0483118215151615612fbe57612fbd6131a2565b5b828202905092915050565b6000612fd482613079565b9150612fdf83613079565b925082821015612ff257612ff16131a2565b5b828203905092915050565b600061300882613059565b9050919050565b600061301a82613059565b9050919050565b60008115159050919050565b60007fffffffff0000000000000000000000000000000000000000000000000000000082169050919050565b600073ffffffffffffffffffffffffffffffffffffffff82169050919050565b6000819050919050565b82818337600083830152505050565b60005b838110156130b0578082015181840152602081019050613095565b838111156130bf576000848401525b50505050565b600060028204905060018216806130dd57607f821691505b602082108114156130f1576130f0613200565b5b50919050565b6131008261325e565b810181811067ffffffffffffffff8211171561311f5761311e61322f565b5b80604052505050565b600061313382613079565b91507fffffffffffffffffffffffffffffffffffffffffffffffffffffffffffffffff821415613166576131656131a2565b5b600182019050919050565b600061317c82613079565b915061318783613079565b925082613197576131966131d1565b5b828206905092915050565b7f4e487b7100000000000000000000000000000000000000000000000000000000600052601160045260246000fd5b7f4e487b7100000000000000000000000000000000000000000000000000000000600052601260045260246000fd5b7f4e487b7100000000000000000000000000000000000000000000000000000000600052602260045260246000fd5b7f4e487b7100000000000000000000000000000000000000000000000000000000600052604160045260246000fd5b6000601f19601f8301169050919050565b7f77726f6e67206d696e742076616c756500000000000000000000000000000000600082015250565b7f4552433732313a207472616e7366657220746f206e6f6e20455243373231526560008201527f63656976657220696d706c656d656e7465720000000000000000000000000000602082015250565b7f6d696e74696e67206e6f7420656e61626c656400000000000000000000000000600082015250565b7f4f776e61626c653a206e6577206f776e657220697320746865207a65726f206160008201527f6464726573730000000000000000000000000000000000000000000000000000602082015250565b7f4552433732313a207472616e736665722066726f6d20696e636f72726563742060008201527f6f776e6572000000000000000000000000000000000000000000000000000000602082015250565b7f4552433732313a20746f6b656e20616c7265616479206d696e74656400000000600082015250565b7f4552433732313a207472616e7366657220746f20746865207a65726f2061646460008201527f7265737300000000000000000000000000000000000000000000000000000000602082015250565b7f4552433732313a20617070726f766520746f2063616c6c657200000000000000600082015250565b7f4552433732313a206f70657261746f7220717565727920666f72206e6f6e657860008201527f697374656e7420746f6b656e0000000000000000000000000000000000000000602082015250565b7f736f6c64206f7574000000000000000000000000000000000000000000000000600082015250565b7f4552433732313a20617070726f76652063616c6c6572206973206e6f74206f7760008201527f6e6572206e6f7220617070726f76656420666f7220616c6c0000000000000000602082015250565b7f4552433732313a2062616c616e636520717565727920666f7220746865207a6560008201527f726f206164647265737300000000000000000000000000000000000000000000602082015250565b7f4552433732313a206f776e657220717565727920666f72206e6f6e657869737460008201527f656e7420746f6b656e0000000000000000000000000000000000000000000000602082015250565b7f4552433732313a206d696e7420746f20746865207a65726f2061646472657373600082015250565b7f4552433732313a20617070726f76656420717565727920666f72206e6f6e657860008201527f697374656e7420746f6b656e0000000000000000000000000000000000000000602082015250565b7f2e6a736f6e000000000000000000000000000000000000000000000000000000600082015250565b7f657863656564206d61782077616c6c6574000000000000000000000000000000600082015250565b7f4f776e61626c653a2063616c6c6572206973206e6f7420746865206f776e6572600082015250565b7f4552433732313a20617070726f76616c20746f2063757272656e74206f776e6560008201527f7200000000000000000000000000000000000000000000000000000000000000602082015250565b50565b7f4552433732313a207472616e736665722063616c6c6572206973206e6f74206f60008201527f776e6572206e6f7220617070726f766564000000000000000000000000000000602082015250565b7f5265656e7472616e637947756172643a207265656e7472616e742063616c6c00600082015250565b7f546f6b656e20646f6573206e6f74206578697374210000000000000000000000600082015250565b7f7769746864726177206661696c65640000000000000000000000000000000000600082015250565b6137cc81612ffd565b81146137d757600080fd5b50565b6137e381613021565b81146137ee57600080fd5b50565b6137fa8161302d565b811461380557600080fd5b50565b61381181613079565b811461381c57600080fd5b5056fea26469706673582212205ff7ef24cd05070d100ea1d9ef744e38bfd1bd75f6195d6f36aa6fdac807f6e664736f6c63430008040033",
  "linkReferences": {},
  "deployedLinkReferences": {}
}